{
  "_format": "hh-sol-artifact-1",
  "contractName": "GalileoProtocol",
  "sourceName": "contracts/GalileoProtocol.sol",
  "abi": [
    {
      "inputs": [
        {
          "internalType": "string",
          "name": "name",
          "type": "string"
        },
        {
          "internalType": "string",
          "name": "symbol",
          "type": "string"
        },
        {
          "internalType": "string",
          "name": "intials",
          "type": "string"
        },
        {
          "internalType": "address",
          "name": "admin",
          "type": "address"
        },
        {
          "internalType": "address",
          "name": "subAdmin",
          "type": "address"
        },
        {
          "internalType": "address",
          "name": "marketplace",
          "type": "address"
        },
        {
          "internalType": "address",
          "name": "factory",
          "type": "address"
        },
        {
          "internalType": "address",
          "name": "token",
          "type": "address"
        },
        {
          "internalType": "address",
          "name": "escrow",
          "type": "address"
        },
        {
          "components": [
            {
              "internalType": "uint256[]",
              "name": "minRanges",
              "type": "uint256[]"
            },
            {
              "internalType": "uint256[]",
              "name": "maxRanges",
              "type": "uint256[]"
            },
            {
              "internalType": "uint256[]",
              "name": "percentages",
              "type": "uint256[]"
            }
          ],
          "internalType": "struct GalileoProtocolStorage.ReferralParameters",
          "name": "referralParameters",
          "type": "tuple"
        }
      ],
      "stateMutability": "nonpayable",
      "type": "constructor"
    },
    {
      "inputs": [],
      "name": "AccessControlBadConfirmation",
      "type": "error"
    },
    {
      "inputs": [
        {
          "internalType": "address",
          "name": "account",
          "type": "address"
        },
        {
          "internalType": "bytes32",
          "name": "neededRole",
          "type": "bytes32"
        }
      ],
      "name": "AccessControlUnauthorizedAccount",
      "type": "error"
    },
    {
      "inputs": [],
      "name": "AccessDenied",
      "type": "error"
    },
    {
      "inputs": [
        {
          "internalType": "address",
          "name": "target",
          "type": "address"
        }
      ],
      "name": "AddressEmptyCode",
      "type": "error"
    },
    {
      "inputs": [
        {
          "internalType": "address",
          "name": "account",
          "type": "address"
        }
      ],
      "name": "AddressInsufficientBalance",
      "type": "error"
    },
    {
      "inputs": [],
      "name": "ECDSAInvalidSignature",
      "type": "error"
    },
    {
      "inputs": [
        {
          "internalType": "uint256",
          "name": "length",
          "type": "uint256"
        }
      ],
      "name": "ECDSAInvalidSignatureLength",
      "type": "error"
    },
    {
      "inputs": [
        {
          "internalType": "bytes32",
          "name": "s",
          "type": "bytes32"
        }
      ],
      "name": "ECDSAInvalidSignatureS",
      "type": "error"
    },
    {
      "inputs": [
        {
          "internalType": "address",
          "name": "sender",
          "type": "address"
        },
        {
          "internalType": "uint256",
          "name": "tokenId",
          "type": "uint256"
        },
        {
          "internalType": "address",
          "name": "owner",
          "type": "address"
        }
      ],
      "name": "ERC721IncorrectOwner",
      "type": "error"
    },
    {
      "inputs": [
        {
          "internalType": "address",
          "name": "operator",
          "type": "address"
        },
        {
          "internalType": "uint256",
          "name": "tokenId",
          "type": "uint256"
        }
      ],
      "name": "ERC721InsufficientApproval",
      "type": "error"
    },
    {
      "inputs": [
        {
          "internalType": "address",
          "name": "approver",
          "type": "address"
        }
      ],
      "name": "ERC721InvalidApprover",
      "type": "error"
    },
    {
      "inputs": [
        {
          "internalType": "address",
          "name": "operator",
          "type": "address"
        }
      ],
      "name": "ERC721InvalidOperator",
      "type": "error"
    },
    {
      "inputs": [
        {
          "internalType": "address",
          "name": "owner",
          "type": "address"
        }
      ],
      "name": "ERC721InvalidOwner",
      "type": "error"
    },
    {
      "inputs": [
        {
          "internalType": "address",
          "name": "receiver",
          "type": "address"
        }
      ],
      "name": "ERC721InvalidReceiver",
      "type": "error"
    },
    {
      "inputs": [
        {
          "internalType": "address",
          "name": "sender",
          "type": "address"
        }
      ],
      "name": "ERC721InvalidSender",
      "type": "error"
    },
    {
      "inputs": [
        {
          "internalType": "uint256",
          "name": "tokenId",
          "type": "uint256"
        }
      ],
      "name": "ERC721NonexistentToken",
      "type": "error"
    },
    {
      "inputs": [],
      "name": "FailedInnerCall",
      "type": "error"
    },
    {
      "inputs": [],
      "name": "InvalidAddress",
      "type": "error"
    },
    {
      "inputs": [],
      "name": "InvalidCollection",
      "type": "error"
    },
    {
      "inputs": [],
      "name": "InvalidLength",
      "type": "error"
    },
    {
      "inputs": [],
      "name": "InvalidOwner",
      "type": "error"
    },
    {
      "inputs": [],
      "name": "InvalidPercentage",
      "type": "error"
    },
    {
      "inputs": [],
      "name": "InvalidPrice",
      "type": "error"
    },
    {
      "inputs": [],
      "name": "InvalidRange",
      "type": "error"
    },
    {
      "inputs": [],
      "name": "InvalidShortString",
      "type": "error"
    },
    {
      "inputs": [],
      "name": "InvalidSignature",
      "type": "error"
    },
    {
      "inputs": [
        {
          "internalType": "address",
          "name": "owner",
          "type": "address"
        }
      ],
      "name": "OwnableInvalidOwner",
      "type": "error"
    },
    {
      "inputs": [
        {
          "internalType": "address",
          "name": "account",
          "type": "address"
        }
      ],
      "name": "OwnableUnauthorizedAccount",
      "type": "error"
    },
    {
      "inputs": [
        {
          "internalType": "address",
          "name": "token",
          "type": "address"
        }
      ],
      "name": "SafeERC20FailedOperation",
      "type": "error"
    },
    {
      "inputs": [
        {
          "internalType": "string",
          "name": "str",
          "type": "string"
        }
      ],
      "name": "StringTooLong",
      "type": "error"
    },
    {
      "anonymous": false,
      "inputs": [
        {
          "indexed": true,
          "internalType": "address",
          "name": "owner",
          "type": "address"
        },
        {
          "indexed": true,
          "internalType": "address",
          "name": "approved",
          "type": "address"
        },
        {
          "indexed": true,
          "internalType": "uint256",
          "name": "tokenId",
          "type": "uint256"
        }
      ],
      "name": "Approval",
      "type": "event"
    },
    {
      "anonymous": false,
      "inputs": [
        {
          "indexed": true,
          "internalType": "address",
          "name": "owner",
          "type": "address"
        },
        {
          "indexed": true,
          "internalType": "address",
          "name": "operator",
          "type": "address"
        },
        {
          "indexed": false,
          "internalType": "bool",
          "name": "approved",
          "type": "bool"
        }
      ],
      "name": "ApprovalForAll",
      "type": "event"
    },
    {
      "anonymous": false,
      "inputs": [
        {
          "indexed": false,
          "internalType": "uint256",
          "name": "_fromTokenId",
          "type": "uint256"
        },
        {
          "indexed": false,
          "internalType": "uint256",
          "name": "_toTokenId",
          "type": "uint256"
        }
      ],
      "name": "BatchMetadataUpdate",
      "type": "event"
    },
    {
      "anonymous": false,
      "inputs": [
        {
          "indexed": false,
          "internalType": "address",
          "name": "subAdmin",
          "type": "address"
        },
        {
          "indexed": false,
          "internalType": "address",
          "name": "buyer",
          "type": "address"
        },
        {
          "indexed": true,
          "internalType": "uint256",
          "name": "price",
          "type": "uint256"
        },
        {
          "indexed": true,
          "internalType": "uint256",
          "name": "tokenId",
          "type": "uint256"
        }
      ],
      "name": "BuyNFT",
      "type": "event"
    },
    {
      "anonymous": false,
      "inputs": [],
      "name": "EIP712DomainChanged",
      "type": "event"
    },
    {
      "anonymous": false,
      "inputs": [
        {
          "indexed": true,
          "internalType": "address",
          "name": "to",
          "type": "address"
        },
        {
          "indexed": true,
          "internalType": "uint256",
          "name": "tokenId",
          "type": "uint256"
        },
        {
          "indexed": false,
          "internalType": "string",
          "name": "serial",
          "type": "string"
        }
      ],
      "name": "HandleMint",
      "type": "event"
    },
    {
      "anonymous": false,
      "inputs": [
        {
          "indexed": true,
          "internalType": "address",
          "name": "owner",
          "type": "address"
        },
        {
          "indexed": true,
          "internalType": "address",
          "name": "protocolAddress",
          "type": "address"
        },
        {
          "indexed": true,
          "internalType": "uint256[]",
          "name": "tokenId",
          "type": "uint256[]"
        }
      ],
      "name": "HandleMintMultiple",
      "type": "event"
    },
    {
      "anonymous": false,
      "inputs": [
        {
          "indexed": true,
          "internalType": "uint256",
          "name": "tokenId",
          "type": "uint256"
        },
        {
          "indexed": true,
          "internalType": "uint256",
          "name": "count",
          "type": "uint256"
        },
        {
          "indexed": false,
          "internalType": "string",
          "name": "newTokenURI",
          "type": "string"
        },
        {
          "indexed": false,
          "internalType": "string",
          "name": "oldTokenURI",
          "type": "string"
        },
        {
          "indexed": false,
          "internalType": "address",
          "name": "updater",
          "type": "address"
        }
      ],
      "name": "HandleUpdateUri",
      "type": "event"
    },
    {
      "anonymous": false,
      "inputs": [
        {
          "indexed": false,
          "internalType": "uint256",
          "name": "_tokenId",
          "type": "uint256"
        }
      ],
      "name": "MetadataUpdate",
      "type": "event"
    },
    {
      "anonymous": false,
      "inputs": [
        {
          "indexed": true,
          "internalType": "address",
          "name": "previousOwner",
          "type": "address"
        },
        {
          "indexed": true,
          "internalType": "address",
          "name": "newOwner",
          "type": "address"
        }
      ],
      "name": "OwnershipTransferred",
      "type": "event"
    },
    {
      "anonymous": false,
      "inputs": [
        {
          "indexed": true,
          "internalType": "bytes32",
          "name": "role",
          "type": "bytes32"
        },
        {
          "indexed": true,
          "internalType": "bytes32",
          "name": "previousAdminRole",
          "type": "bytes32"
        },
        {
          "indexed": true,
          "internalType": "bytes32",
          "name": "newAdminRole",
          "type": "bytes32"
        }
      ],
      "name": "RoleAdminChanged",
      "type": "event"
    },
    {
      "anonymous": false,
      "inputs": [
        {
          "indexed": true,
          "internalType": "bytes32",
          "name": "role",
          "type": "bytes32"
        },
        {
          "indexed": true,
          "internalType": "address",
          "name": "account",
          "type": "address"
        },
        {
          "indexed": true,
          "internalType": "address",
          "name": "sender",
          "type": "address"
        }
      ],
      "name": "RoleGranted",
      "type": "event"
    },
    {
      "anonymous": false,
      "inputs": [
        {
          "indexed": true,
          "internalType": "bytes32",
          "name": "role",
          "type": "bytes32"
        },
        {
          "indexed": true,
          "internalType": "address",
          "name": "account",
          "type": "address"
        },
        {
          "indexed": true,
          "internalType": "address",
          "name": "sender",
          "type": "address"
        }
      ],
      "name": "RoleRevoked",
      "type": "event"
    },
    {
      "anonymous": false,
      "inputs": [
        {
          "indexed": true,
          "internalType": "uint256",
          "name": "price",
          "type": "uint256"
        },
        {
          "indexed": true,
          "internalType": "uint256",
          "name": "royalityAmount",
          "type": "uint256"
        }
      ],
      "name": "SerialRoyalty",
      "type": "event"
    },
    {
      "anonymous": false,
      "inputs": [
        {
          "indexed": false,
          "internalType": "uint256[]",
          "name": "minRange",
          "type": "uint256[]"
        },
        {
          "indexed": false,
          "internalType": "uint256[]",
          "name": "maxRange",
          "type": "uint256[]"
        },
        {
          "indexed": false,
          "internalType": "uint256[]",
          "name": "percentage",
          "type": "uint256[]"
        }
      ],
      "name": "SetRefferalFee",
      "type": "event"
    },
    {
      "anonymous": false,
      "inputs": [
        {
          "indexed": true,
          "internalType": "address",
          "name": "from",
          "type": "address"
        },
        {
          "indexed": true,
          "internalType": "address",
          "name": "to",
          "type": "address"
        },
        {
          "indexed": true,
          "internalType": "uint256",
          "name": "tokenId",
          "type": "uint256"
        }
      ],
      "name": "Transfer",
      "type": "event"
    },
    {
      "inputs": [],
      "name": "DEFAULT_ADMIN_ROLE",
      "outputs": [
        {
          "internalType": "bytes32",
          "name": "",
          "type": "bytes32"
        }
      ],
      "stateMutability": "view",
      "type": "function"
    },
    {
      "inputs": [],
      "name": "SUB_ADMIN_ROLE",
      "outputs": [
        {
          "internalType": "bytes32",
          "name": "",
          "type": "bytes32"
        }
      ],
      "stateMutability": "view",
      "type": "function"
    },
    {
      "inputs": [],
      "name": "SUPER_ADMIN_ROLE",
      "outputs": [
        {
          "internalType": "bytes32",
          "name": "",
          "type": "bytes32"
        }
      ],
      "stateMutability": "view",
      "type": "function"
    },
    {
      "inputs": [
        {
          "internalType": "address",
          "name": "to",
          "type": "address"
        },
        {
          "internalType": "uint256",
          "name": "tokenId",
          "type": "uint256"
        }
      ],
      "name": "approve",
      "outputs": [],
      "stateMutability": "nonpayable",
      "type": "function"
    },
    {
      "inputs": [
        {
          "internalType": "address",
          "name": "owner",
          "type": "address"
        }
      ],
      "name": "balanceOf",
      "outputs": [
        {
          "internalType": "uint256",
          "name": "",
          "type": "uint256"
        }
      ],
      "stateMutability": "view",
      "type": "function"
    },
    {
      "inputs": [
        {
          "internalType": "uint256[]",
          "name": "ids",
          "type": "uint256[]"
        },
        {
          "internalType": "string[]",
          "name": "newTokenURIs",
          "type": "string[]"
        }
      ],
      "name": "bulkUpdateUri",
      "outputs": [],
      "stateMutability": "nonpayable",
      "type": "function"
    },
    {
      "inputs": [
        {
          "internalType": "uint256",
          "name": "_tokenId",
          "type": "uint256"
        }
      ],
      "name": "burnNft",
      "outputs": [],
      "stateMutability": "nonpayable",
      "type": "function"
    },
    {
      "inputs": [
        {
          "components": [
            {
              "internalType": "string",
              "name": "uri",
              "type": "string"
            },
            {
              "internalType": "uint256",
              "name": "price",
              "type": "uint256"
            },
            {
              "internalType": "uint256",
              "name": "tax",
              "type": "uint256"
            },
            {
              "internalType": "uint256",
              "name": "referralFee",
              "type": "uint256"
            },
            {
              "internalType": "uint256",
              "name": "marketplaceFee",
              "type": "uint256"
            },
            {
              "internalType": "uint256",
              "name": "shipmentFee",
              "type": "uint256"
            },
            {
              "internalType": "uint256",
              "name": "tokenId",
              "type": "uint256"
            },
            {
              "internalType": "uint256",
              "name": "time",
              "type": "uint256"
            },
            {
              "internalType": "address",
              "name": "collectionAddress",
              "type": "address"
            },
            {
              "internalType": "bool",
              "name": "isTaxToSeller",
              "type": "bool"
            },
            {
              "internalType": "bytes",
              "name": "signature",
              "type": "bytes"
            }
          ],
          "internalType": "struct GalileoProtocolStorage.GalileoProtocolVoucher[]",
          "name": "voucher",
          "type": "tuple[]"
        },
        {
          "internalType": "address[]",
          "name": "subAdmin",
          "type": "address[]"
        }
      ],
      "name": "buyNFTs",
      "outputs": [],
      "stateMutability": "nonpayable",
      "type": "function"
    },
    {
      "inputs": [],
      "name": "eip712Domain",
      "outputs": [
        {
          "internalType": "bytes1",
          "name": "fields",
          "type": "bytes1"
        },
        {
          "internalType": "string",
          "name": "name",
          "type": "string"
        },
        {
          "internalType": "string",
          "name": "version",
          "type": "string"
        },
        {
          "internalType": "uint256",
          "name": "chainId",
          "type": "uint256"
        },
        {
          "internalType": "address",
          "name": "verifyingContract",
          "type": "address"
        },
        {
          "internalType": "bytes32",
          "name": "salt",
          "type": "bytes32"
        },
        {
          "internalType": "uint256[]",
          "name": "extensions",
          "type": "uint256[]"
        }
      ],
      "stateMutability": "view",
      "type": "function"
    },
    {
      "inputs": [
        {
          "internalType": "uint256",
          "name": "tokenId",
          "type": "uint256"
        }
      ],
      "name": "getApproved",
      "outputs": [
        {
          "internalType": "address",
          "name": "",
          "type": "address"
        }
      ],
      "stateMutability": "view",
      "type": "function"
    },
    {
      "inputs": [],
      "name": "getInitial",
      "outputs": [
        {
          "internalType": "string",
          "name": "",
          "type": "string"
        }
      ],
      "stateMutability": "view",
      "type": "function"
    },
    {
      "inputs": [
        {
          "internalType": "uint256",
          "name": "price",
          "type": "uint256"
        }
      ],
      "name": "getReferralFee",
      "outputs": [
        {
          "internalType": "uint256",
          "name": "referralFee",
          "type": "uint256"
        }
      ],
      "stateMutability": "view",
      "type": "function"
    },
    {
      "inputs": [
        {
          "internalType": "bytes32",
          "name": "role",
          "type": "bytes32"
        }
      ],
      "name": "getRoleAdmin",
      "outputs": [
        {
          "internalType": "bytes32",
          "name": "",
          "type": "bytes32"
        }
      ],
      "stateMutability": "view",
      "type": "function"
    },
    {
      "inputs": [
        {
          "internalType": "bytes32",
          "name": "role",
          "type": "bytes32"
        },
        {
          "internalType": "address",
          "name": "account",
          "type": "address"
        }
      ],
      "name": "grantRole",
      "outputs": [],
      "stateMutability": "nonpayable",
      "type": "function"
    },
    {
      "inputs": [
        {
          "internalType": "bytes32",
          "name": "role",
          "type": "bytes32"
        },
        {
          "internalType": "address",
          "name": "account",
          "type": "address"
        }
      ],
      "name": "hasRole",
      "outputs": [
        {
          "internalType": "bool",
          "name": "",
          "type": "bool"
        }
      ],
      "stateMutability": "view",
      "type": "function"
    },
    {
      "inputs": [
        {
          "internalType": "address",
          "name": "owner",
          "type": "address"
        },
        {
          "internalType": "address",
          "name": "operator",
          "type": "address"
        }
      ],
      "name": "isApprovedForAll",
      "outputs": [
        {
          "internalType": "bool",
          "name": "",
          "type": "bool"
        }
      ],
      "stateMutability": "view",
      "type": "function"
    },
    {
      "inputs": [
        {
          "internalType": "string",
          "name": "tokenURI",
          "type": "string"
        },
        {
          "internalType": "address[]",
          "name": "royalityAddresses",
          "type": "address[]"
        },
        {
          "internalType": "uint256[]",
          "name": "royalityValues",
          "type": "uint256[]"
        },
        {
          "internalType": "uint256",
          "name": "price",
          "type": "uint256"
        },
        {
          "internalType": "uint256",
          "name": "tokenId",
          "type": "uint256"
        },
        {
          "internalType": "uint256",
          "name": "royalityAmount",
          "type": "uint256"
        },
        {
          "internalType": "bool",
          "name": "isTaxToSeller",
          "type": "bool"
        }
      ],
      "name": "mint",
      "outputs": [],
      "stateMutability": "nonpayable",
      "type": "function"
    },
    {
      "inputs": [
        {
          "internalType": "string",
          "name": "tokenURI",
          "type": "string"
        },
        {
          "internalType": "address",
          "name": "to",
          "type": "address"
        },
        {
          "internalType": "uint256",
          "name": "tokenId",
          "type": "uint256"
        }
      ],
      "name": "mintTo",
      "outputs": [],
      "stateMutability": "nonpayable",
      "type": "function"
    },
    {
      "inputs": [
        {
          "internalType": "address[]",
          "name": "royalityAddresses",
          "type": "address[]"
        },
        {
          "internalType": "string[]",
          "name": "tokenURI",
          "type": "string[]"
        },
        {
          "internalType": "uint256[]",
          "name": "tokenId",
          "type": "uint256[]"
        },
        {
          "internalType": "uint256[]",
          "name": "royalityValues",
          "type": "uint256[]"
        },
        {
          "internalType": "uint256",
          "name": "price",
          "type": "uint256"
        },
        {
          "internalType": "uint256",
          "name": "royalityAmount",
          "type": "uint256"
        },
        {
          "internalType": "bool[]",
          "name": "isTaxToSeller",
          "type": "bool[]"
        }
      ],
      "name": "multipleMint",
      "outputs": [],
      "stateMutability": "nonpayable",
      "type": "function"
    },
    {
      "inputs": [],
      "name": "name",
      "outputs": [
        {
          "internalType": "string",
          "name": "",
          "type": "string"
        }
      ],
      "stateMutability": "view",
      "type": "function"
    },
    {
      "inputs": [],
      "name": "owner",
      "outputs": [
        {
          "internalType": "address",
          "name": "",
          "type": "address"
        }
      ],
      "stateMutability": "view",
      "type": "function"
    },
    {
      "inputs": [
        {
          "internalType": "uint256",
          "name": "tokenId",
          "type": "uint256"
        }
      ],
      "name": "ownerOf",
      "outputs": [
        {
          "internalType": "address",
          "name": "",
          "type": "address"
        }
      ],
      "stateMutability": "view",
      "type": "function"
    },
    {
      "inputs": [],
      "name": "renounceOwnership",
      "outputs": [],
      "stateMutability": "nonpayable",
      "type": "function"
    },
    {
      "inputs": [
        {
          "internalType": "bytes32",
          "name": "role",
          "type": "bytes32"
        },
        {
          "internalType": "address",
          "name": "callerConfirmation",
          "type": "address"
        }
      ],
      "name": "renounceRole",
      "outputs": [],
      "stateMutability": "nonpayable",
      "type": "function"
    },
    {
      "inputs": [
        {
          "internalType": "bytes32",
          "name": "role",
          "type": "bytes32"
        },
        {
          "internalType": "address",
          "name": "account",
          "type": "address"
        }
      ],
      "name": "revokeRole",
      "outputs": [],
      "stateMutability": "nonpayable",
      "type": "function"
    },
    {
      "inputs": [
        {
          "internalType": "address",
          "name": "from",
          "type": "address"
        },
        {
          "internalType": "address",
          "name": "to",
          "type": "address"
        },
        {
          "internalType": "uint256",
          "name": "tokenId",
          "type": "uint256"
        }
      ],
      "name": "safeTransferFrom",
      "outputs": [],
      "stateMutability": "nonpayable",
      "type": "function"
    },
    {
      "inputs": [
        {
          "internalType": "address",
          "name": "from",
          "type": "address"
        },
        {
          "internalType": "address",
          "name": "to",
          "type": "address"
        },
        {
          "internalType": "uint256",
          "name": "tokenId",
          "type": "uint256"
        },
        {
          "internalType": "bytes",
          "name": "data",
          "type": "bytes"
        }
      ],
      "name": "safeTransferFrom",
      "outputs": [],
      "stateMutability": "nonpayable",
      "type": "function"
    },
    {
      "inputs": [
        {
          "internalType": "address",
          "name": "operator",
          "type": "address"
        },
        {
          "internalType": "bool",
          "name": "approved",
          "type": "bool"
        }
      ],
      "name": "setApprovalForAll",
      "outputs": [],
      "stateMutability": "nonpayable",
      "type": "function"
    },
    {
      "inputs": [
        {
          "internalType": "uint256[]",
          "name": "minRanges",
          "type": "uint256[]"
        },
        {
          "internalType": "uint256[]",
          "name": "maxRanges",
          "type": "uint256[]"
        },
        {
          "internalType": "uint256[]",
          "name": "percentages",
          "type": "uint256[]"
        }
      ],
      "name": "setReferralFees",
      "outputs": [],
      "stateMutability": "nonpayable",
      "type": "function"
    },
    {
      "inputs": [
        {
          "internalType": "bytes4",
          "name": "interfaceId",
          "type": "bytes4"
        }
      ],
      "name": "supportsInterface",
      "outputs": [
        {
          "internalType": "bool",
          "name": "",
          "type": "bool"
        }
      ],
      "stateMutability": "view",
      "type": "function"
    },
    {
      "inputs": [],
      "name": "symbol",
      "outputs": [
        {
          "internalType": "string",
          "name": "",
          "type": "string"
        }
      ],
      "stateMutability": "view",
      "type": "function"
    },
    {
      "inputs": [
        {
          "internalType": "uint256",
          "name": "tokenId",
          "type": "uint256"
        }
      ],
      "name": "tokenURI",
      "outputs": [
        {
          "internalType": "string",
          "name": "",
          "type": "string"
        }
      ],
      "stateMutability": "view",
      "type": "function"
    },
    {
      "inputs": [
        {
          "internalType": "address",
          "name": "from",
          "type": "address"
        },
        {
          "internalType": "address",
          "name": "to",
          "type": "address"
        },
        {
          "internalType": "uint256",
          "name": "tokenId",
          "type": "uint256"
        }
      ],
      "name": "transferFrom",
      "outputs": [],
      "stateMutability": "nonpayable",
      "type": "function"
    },
    {
      "inputs": [
        {
          "internalType": "address",
          "name": "newOwner",
          "type": "address"
        }
      ],
      "name": "transferOwnership",
      "outputs": [],
      "stateMutability": "nonpayable",
      "type": "function"
    },
    {
      "inputs": [
        {
          "internalType": "uint256",
          "name": "tokenId",
          "type": "uint256"
        },
        {
          "internalType": "string",
          "name": "newTokenURI",
          "type": "string"
        },
        {
          "internalType": "address",
          "name": "owner",
          "type": "address"
        }
      ],
      "name": "updateUri",
      "outputs": [],
      "stateMutability": "nonpayable",
      "type": "function"
    }
  ],
  "bytecode": "0x6101a060405260036101609081526211d05360ea1b610180526016906200002790826200079f565b503480156200003557600080fd5b506040516200462a3803806200462a833981016040819052620000589162000a98565b866040518060400160405280601081526020016f11d85b1a5b195bcb541c9bdd1bd8dbdb60821b815250604051806040016040528060018152602001603160f81b8152508c8c8160009081620000af91906200079f565b506001620000be82826200079f565b50620000d09150839050600762000338565b61012052620000e181600862000338565b61014052815160208084019190912060e052815190820120610100524660a0526200016f60e05161010051604080517f8b73c3c69bb8fe3d512ecc4cf759cc79239f7b179b0ffacaa9a75d522b39400f60208201529081019290925260608201524660808201523060a082015260009060c00160405160208183030381529060405280519060200120905090565b60805250503060c0526001600160a01b038116620001a857604051631e4fbdf760e01b8152600060048201526024015b60405180910390fd5b620001b38162000371565b506001600160a01b0387161580620001d257506001600160a01b038616155b80620001e557506001600160a01b038516155b80620001f857506001600160a01b038416155b806200020b57506001600160a01b038316155b806200021e57506001600160a01b038216155b156200023d5760405163e6c4247b60e01b815260040160405180910390fd5b6200024a600088620003c3565b50620002777fd2e4c2619ea6e0faebc405d89445161c041e30fe03373ea0473da142d57d451487620003c3565b50620002a47f7613a25ecc738585a232ad50a301178f12b3ba8887d13e138b523c4269c4768988620003c3565b50805160208201516040830151620002be92919062000475565b600b80546001600160a01b038088166001600160a01b031992831617909255600c805492871692909116919091179055600f620002fc89826200079f565b5050600d80546001600160a01b039384166001600160a01b031991821617909155600e80549290931691161790555062000cba95505050505050565b60006020835110156200035857620003508362000667565b90506200036b565b816200036584826200079f565b5060ff90505b92915050565b600a80546001600160a01b038381166001600160a01b0319831681179093556040519116919082907f8be0079c531659141344cd1fd0a4f28419497f9722a3daafe3b4186f6b6457e090600090a35050565b60008281526009602090815260408083206001600160a01b038516845290915281205460ff166200046c5760008381526009602090815260408083206001600160a01b03861684529091529020805460ff19166001179055620004233390565b6001600160a01b0316826001600160a01b0316847f2f8788117e7eff1d82e926ec794901d17c78024a50270940304540a733656f0d60405160405180910390a45060016200036b565b5060006200036b565b815183511415806200048957508051825114155b15620004a85760405163251f56a160e21b815260040160405180910390fd5b620004b660126000620006aa565b60005b83518110156200062457828181518110620004d857620004d862000bc3565b6020026020010151848281518110620004f557620004f562000bc3565b602002602001015111156200051d5760405163561ce9bb60e01b815260040160405180910390fd5b68056bc75e2d631000008282815181106200053c576200053c62000bc3565b6020026020010151101580620005555750601254606411155b156200057457604051631f3b85d360e01b815260040160405180910390fd5b600b600701604051806060016040528086848151811062000599576200059962000bc3565b60200260200101518152602001858481518110620005bb57620005bb62000bc3565b60200260200101518152602001848481518110620005dd57620005dd62000bc3565b6020908102919091018101519091528254600181810185556000948552938290208351600390920201908155908201518184015560409091015160029091015501620004b9565b507f91beee1978c89938017d353f9833ba1ce133fc204e4b0ee36ce889d4dc27ecb28383836040516200065a9392919062000c17565b60405180910390a1505050565b600080829050601f8151111562000695578260405163305a27a960e01b81526004016200019f919062000c60565b8051620006a28262000c95565b179392505050565b5080546000825560030290600052602060002090810190620006cd9190620006d0565b50565b5b80821115620006f4576000808255600182018190556002820155600301620006d1565b5090565b634e487b7160e01b600052604160045260246000fd5b600181811c908216806200072357607f821691505b6020821081036200074457634e487b7160e01b600052602260045260246000fd5b50919050565b601f8211156200079a576000816000526020600020601f850160051c81016020861015620007755750805b601f850160051c820191505b81811015620007965782815560010162000781565b5050505b505050565b81516001600160401b03811115620007bb57620007bb620006f8565b620007d381620007cc84546200070e565b846200074a565b602080601f8311600181146200080b5760008415620007f25750858301515b600019600386901b1c1916600185901b17855562000796565b600085815260208120601f198616915b828110156200083c578886015182559484019460019091019084016200081b565b50858210156200085b5787850151600019600388901b60f8161c191681555b5050505050600190811b01905550565b604051601f8201601f191681016001600160401b0381118282101715620008965762000896620006f8565b604052919050565b60005b83811015620008bb578181015183820152602001620008a1565b50506000910152565b600082601f830112620008d657600080fd5b81516001600160401b03811115620008f257620008f2620006f8565b62000907601f8201601f19166020016200086b565b8181528460208386010111156200091d57600080fd5b620009308260208301602087016200089e565b949350505050565b80516001600160a01b03811681146200095057600080fd5b919050565b600082601f8301126200096757600080fd5b815160206001600160401b03821115620009855762000985620006f8565b8160051b620009968282016200086b565b9283528481018201928281019087851115620009b157600080fd5b83870192505b84831015620009d257825182529183019190830190620009b7565b979650505050505050565b600060608284031215620009f057600080fd5b604051606081016001600160401b03808211838310171562000a165762000a16620006f8565b81604052829350845191508082111562000a2f57600080fd5b62000a3d8683870162000955565b8352602085015191508082111562000a5457600080fd5b62000a628683870162000955565b6020840152604085015191508082111562000a7c57600080fd5b5062000a8b8582860162000955565b6040830152505092915050565b6000806000806000806000806000806101408b8d03121562000ab957600080fd5b8a516001600160401b038082111562000ad157600080fd5b62000adf8e838f01620008c4565b9b5060208d015191508082111562000af657600080fd5b62000b048e838f01620008c4565b9a5060408d015191508082111562000b1b57600080fd5b62000b298e838f01620008c4565b995062000b3960608e0162000938565b985062000b4960808e0162000938565b975062000b5960a08e0162000938565b965062000b6960c08e0162000938565b955062000b7960e08e0162000938565b945062000b8a6101008e0162000938565b93506101208d015191508082111562000ba257600080fd5b5062000bb18d828e01620009dd565b9150509295989b9194979a5092959850565b634e487b7160e01b600052603260045260246000fd5b60008151808452602080850194506020840160005b8381101562000c0c5781518752958201959082019060010162000bee565b509495945050505050565b60608152600062000c2c606083018662000bd9565b828103602084015262000c40818662000bd9565b9050828103604084015262000c56818562000bd9565b9695505050505050565b602081526000825180602084015262000c818160408501602087016200089e565b601f01601f19169190910160400192915050565b80516020808301519190811015620007445760001960209190910360031b1b16919050565b60805160a05160c05160e05161010051610120516101405161391562000d1560003960006116590152600061162701526000612601015260006125d9015260006125340152600061255e0152600061258801526139156000f3fe608060405234801561001057600080fd5b50600436106102115760003560e01c806370a0823111610125578063a22cb465116100ad578063d547741f1161007c578063d547741f1461048f578063d80d0996146104a2578063e985e9c5146104b5578063f2fde38b146104c8578063f38f0311146104db57600080fd5b8063a22cb46514610443578063b88d4fde14610456578063c3299f4c14610469578063c87b56dd1461047c57600080fd5b806391d14854116100f457806391d14854146103fa57806395d89b411461040d5780639895e6f7146104155780639e6353be14610428578063a217fddf1461043b57600080fd5b806370a08231146103b3578063715018a6146103c657806384b0196e146103ce5780638da5cb5b146103e957600080fd5b8063248a9ca3116101a85780633d5efefe116101775780633d5efefe1461034057806342842e0e146103535780634460bdd6146103665780635bdb9cc71461038d5780636352211e146103a057600080fd5b8063248a9ca3146102ef57806326d9dae8146103125780632f2ff15d1461031a57806336568abe1461032d57600080fd5b8063095ea7b3116101e4578063095ea7b3146102a157806310efef08146102b65780631c107eec146102c957806323b872dd146102dc57600080fd5b806301ffc9a714610216578063022f23541461023e57806306fdde0314610261578063081812fc14610276575b600080fd5b6102296102243660046129af565b6104ee565b60405190151581526020015b60405180910390f35b6102536000805160206138c083398151915281565b604051908152602001610235565b61026961050e565b6040516102359190612a1c565b610289610284366004612a2f565b6105a0565b6040516001600160a01b039091168152602001610235565b6102b46102af366004612a64565b6105c9565b005b6102b46102c4366004612b66565b6105d8565b6102b46102d7366004612cd8565b610613565b6102b46102ea366004612d91565b610644565b6102536102fd366004612a2f565b60009081526009602052604090206001015490565b6102696106ce565b6102b4610328366004612dcd565b6106e0565b6102b461033b366004612dcd565b610705565b6102b461034e366004612a2f565b61073d565b6102b4610361366004612d91565b61077a565b6102537f7613a25ecc738585a232ad50a301178f12b3ba8887d13e138b523c4269c4768981565b6102b461039b366004612df9565b610795565b6102896103ae366004612a2f565b610931565b6102536103c1366004612e4f565b61093c565b6102b4610984565b6103d6610998565b6040516102359796959493929190612ea6565b600a546001600160a01b0316610289565b610229610408366004612dcd565b6109de565b610269610a09565b6102b4610423366004612f16565b610a18565b6102b4610436366004612fdb565b610a3b565b610253600081565b6102b461045136600461303e565b610aaf565b6102b4610464366004613075565b610aba565b610253610477366004612a2f565b610ad1565b61026961048a366004612a2f565b610c01565b6102b461049d366004612dcd565b610d12565b6102b46104b036600461313b565b610d37565b6102296104c33660046131a6565b610e23565b6102b46104d6366004612e4f565b610e51565b6102b46104e9366004613238565b610e8c565b60006104f982610fd6565b80610508575061050882611026565b92915050565b60606000805461051d9061331c565b80601f01602080910402602001604051908101604052809291908181526020018280546105499061331c565b80156105965780601f1061056b57610100808354040283529160200191610596565b820191906000526020600020905b81548152906001019060200180831161057957829003601f168201915b5050505050905090565b60006105ab8261104b565b506000828152600460205260409020546001600160a01b0316610508565b6105d4828233611084565b5050565b7f7613a25ecc738585a232ad50a301178f12b3ba8887d13e138b523c4269c4768961060281611091565b61060d84848461109b565b50505050565b6000805160206138c083398151915261062b81611091565b61063a88888888888888611270565b5050505050505050565b6001600160a01b03821661067357604051633250574960e11b8152600060048201526024015b60405180910390fd5b600061068083833361131a565b9050836001600160a01b0316816001600160a01b03161461060d576040516364283d7b60e01b81526001600160a01b038086166004830152602482018490528216604482015260640161066a565b6060600b600401805461051d9061331c565b6000828152600960205260409020600101546106fb81611091565b61060d8383611415565b6001600160a01b038116331461072e5760405163334bd91960e11b815260040160405180910390fd5b61073882826114a9565b505050565b3361074782610931565b6001600160a01b03161461076e576040516349e27cff60e01b815260040160405180910390fd5b61077781611516565b50565b61073883838360405180602001604052806000815250610aba565b82336107a082610931565b6001600160a01b0316141580156107cc57506107ca6000805160206138c0833981519152336109de565b155b80156107ec5750600b546001600160a01b0316336001600160a01b031614155b1561080a57604051634ca8886760e01b815260040160405180910390fd5b600061081585610c01565b90506108218585611551565b6040805160a081018252868152426020808301918252828401858152606084018990526001600160a01b0388166080850181905260008b8152601384528681209181526014845286812054815292529390208251815590516001820155915190919060028201906108929082613398565b50606082015160038201906108a79082613398565b5060809190910151600490910180546001600160a01b0319166001600160a01b03928316179055831660009081526014602052604081208054916108ea8361346d565b91905055857f8f02ffd970557ff000d74e042b3027ca407ccee14ddc3bc758eed4cd73b097d286848760405161092293929190613486565b60405180910390a35050505050565b60006105088261104b565b60006001600160a01b038216610968576040516322718ad960e21b81526000600482015260240161066a565b506001600160a01b031660009081526003602052604090205490565b61098c6115a1565b61099660006115ce565b565b6000606080600080600060606109ac611620565b6109b4611652565b60408051600080825260208201909252600f60f81b9b939a50919850469750309650945092509050565b60009182526009602090815260408084206001600160a01b0393909316845291905290205460ff1690565b60606001805461051d9061331c565b6000805160206138c0833981519152610a3081611091565b61060d84848461167f565b8051825114610a5d5760405163251f56a160e21b815260040160405180910390fd5b60005b825181101561073857610aa7838281518110610a7e57610a7e6134c4565b6020026020010151838381518110610a9857610a986134c4565b602002602001015161039b3390565b600101610a60565b6105d4338383611741565b610ac5848484610644565b61060d848484846117d8565b6000600b600701600081548110610aea57610aea6134c4565b90600052602060002090600302016000015482111580610b3b575060128054610b15906001906134da565b81548110610b2557610b256134c4565b9060005260206000209060030201600101548210155b15610b595760405163561ce9bb60e01b815260040160405180910390fd5b60005b601254811015610bfb576012805482908110610b7a57610b7a6134c4565b9060005260206000209060030201600001548310158015610bc057506012805482908110610baa57610baa6134c4565b9060005260206000209060030201600101548311155b15610bf3576012805482908110610bd957610bd96134c4565b906000526020600020906003020160020154915050919050565b600101610b5c565b50919050565b6060610c0c8261104b565b5060008281526006602052604081208054610c269061331c565b80601f0160208091040260200160405190810160405280929190818152602001828054610c529061331c565b8015610c9f5780601f10610c7457610100808354040283529160200191610c9f565b820191906000526020600020905b815481529060010190602001808311610c8257829003601f168201915b505050505090506000610cbd60408051602081019091526000815290565b90508051600003610ccf575092915050565b815115610d01578082604051602001610ce99291906134ed565b60405160208183030381529060405292505050919050565b610d0a846118fa565b949350505050565b600082815260096020526040902060010154610d2d81611091565b61060d83836114a9565b828114610d575760405163251f56a160e21b815260040160405180910390fd5b60005b83811015610e1c5730858583818110610d7557610d756134c4565b9050602002810190610d87919061351c565b610d9a9061012081019061010001612e4f565b6001600160a01b031614610dc15760405163517172a160e11b815260040160405180910390fd5b610e14858583818110610dd657610dd66134c4565b9050602002810190610de8919061351c565b848484818110610dfa57610dfa6134c4565b9050602002016020810190610e0f9190612e4f565b61196e565b600101610d5a565b5050505050565b6001600160a01b03918216600090815260056020908152604080832093909416825291909152205460ff1690565b610e596115a1565b6001600160a01b038116610e8357604051631e4fbdf760e01b81526000600482015260240161066a565b610777816115ce565b6000805160206138c0833981519152610ea481611091565b8551875114610ec65760405163251f56a160e21b815260040160405180910390fd5b865133906000906001600160401b03811115610ee457610ee4612a8e565b604051908082528060200260200182016040528015610f0d578160200160208202803683370190505b50905060005b8951811015610f7e57610f768a8281518110610f3157610f316134c4565b60200260200101518c8a8a8d8681518110610f4e57610f4e6134c4565b60200260200101518b8b8881518110610f6957610f696134c4565b6020026020010151611270565b600101610f13565b5080604051610f8d919061353d565b6040519081900381209030906001600160a01b038516907fd6971707cdede6381a27c97cfb7b6dad0c2559c052d0b0db241ab1eb50f862e890600090a450505050505050505050565b60006001600160e01b031982166380ac58cd60e01b148061100757506001600160e01b03198216635b5e139f60e01b145b8061050857506301ffc9a760e01b6001600160e01b0319831614610508565b60006001600160e01b03198216637965db0b60e01b1480610508575061050882611a83565b6000818152600260205260408120546001600160a01b03168061050857604051637e27328960e01b81526004810184905260240161066a565b6107388383836001611aa8565b6107778133611bae565b815183511415806110ae57508051825114155b156110cc5760405163251f56a160e21b815260040160405180910390fd5b6110d860126000612957565b60005b835181101561122f578281815181106110f6576110f66134c4565b6020026020010151848281518110611110576111106134c4565b602002602001015111156111375760405163561ce9bb60e01b815260040160405180910390fd5b68056bc75e2d63100000828281518110611153576111536134c4565b602002602001015110158061116b5750601254606411155b1561118957604051631f3b85d360e01b815260040160405180910390fd5b600b60070160405180606001604052808684815181106111ab576111ab6134c4565b602002602001015181526020018584815181106111ca576111ca6134c4565b602002602001015181526020018484815181106111e9576111e96134c4565b60209081029190910181015190915282546001818101855560009485529382902083516003909202019081559082015181840155604090910151600290910155016110db565b507f91beee1978c89938017d353f9833ba1ce133fc204e4b0ee36ce889d4dc27ecb283838360405161126393929190613573565b60405180910390a1505050565b3360008590036112925760405162bfc92160e01b815260040160405180910390fd5b61129c8185611be7565b6112a68489611551565b600b546112bc906001600160a01b0316856105c9565b6112ca878785888887611c01565b83816001600160a01b03167f2a2a8bd7544c610e6eb6c315e996d8de911a88587fb7166c7ccbfb96cabac620600b60050160405161130891906135ac565b60405180910390a35050505050505050565b6000828152600260205260408120546001600160a01b039081169083161561134757611347818486611d27565b6001600160a01b0381161561138557611364600085600080611aa8565b6001600160a01b038116600090815260036020526040902080546000190190555b6001600160a01b038516156113b4576001600160a01b0385166000908152600360205260409020805460010190555b60008481526002602052604080822080546001600160a01b0319166001600160a01b0389811691821790925591518793918516917fddf252ad1be2c89b69c2b068fc378daa952ba7f163c4a11628f55a4df523b3ef91a490505b9392505050565b600061142183836109de565b6114a15760008381526009602090815260408083206001600160a01b03861684529091529020805460ff191660011790556114593390565b6001600160a01b0316826001600160a01b0316847f2f8788117e7eff1d82e926ec794901d17c78024a50270940304540a733656f0d60405160405180910390a4506001610508565b506000610508565b60006114b583836109de565b156114a15760008381526009602090815260408083206001600160a01b0386168085529252808320805460ff1916905551339286917ff6391f5c32d9c69d2a47ea670b442974b53935d1edc7fd64eb21e047a839171b9190a4506001610508565b6000611525600083600061131a565b90506001600160a01b0381166105d457604051637e27328960e01b81526004810183905260240161066a565b60008281526006602052604090206115698282613398565b506040518281527ff8e1a15aba9398e019f0b49df1a4fde98ee17ae345cb5f6b5e2c27f5033e8ce79060200160405180910390a15050565b600a546001600160a01b031633146109965760405163118cdaa760e01b815233600482015260240161066a565b600a80546001600160a01b038381166001600160a01b0319831681179093556040519116919082907f8be0079c531659141344cd1fd0a4f28419497f9722a3daafe3b4186f6b6457e090600090a35050565b606061164d7f00000000000000000000000000000000000000000000000000000000000000006007611d8b565b905090565b606061164d7f00000000000000000000000000000000000000000000000000000000000000006008611d8b565b6116898282611be7565b6116938184611551565b6016600f6116a083611e36565b6040516020016116b2939291906136af565b60408051601f198184030181529190526010906116cf9082613398565b5060405181906015906116e4906010906136de565b90815260200160405180910390208190555080826001600160a01b03167f2a2a8bd7544c610e6eb6c315e996d8de911a88587fb7166c7ccbfb96cabac620600b60050160405161173491906135ac565b60405180910390a3505050565b6001600160a01b03821661177357604051630b61174360e31b81526001600160a01b038316600482015260240161066a565b6001600160a01b03838116600081815260056020908152604080832094871680845294825291829020805460ff191686151590811790915591519182527f17307eab39ab6107e8899845ad3d59bd9653f200f220920489ca2b5937696c319101611734565b6001600160a01b0383163b1561060d57604051630a85bd0160e11b81526001600160a01b0384169063150b7a029061181a9033908890879087906004016136ea565b6020604051808303816000875af1925050508015611855575060408051601f3d908101601f191682019092526118529181019061371d565b60015b6118be573d808015611883576040519150601f19603f3d011682016040523d82523d6000602084013e611888565b606091505b5080516000036118b657604051633250574960e11b81526001600160a01b038516600482015260240161066a565b805181602001fd5b6001600160e01b03198116630a85bd0160e11b14610e1c57604051633250574960e11b81526001600160a01b038516600482015260240161066a565b60606119058261104b565b50600061191d60408051602081019091526000815290565b9050600081511161193d576040518060200160405280600081525061140e565b8061194784611e36565b6040516020016119589291906134ed565b6040516020818303038152906040529392505050565b3361197883611ec8565b6119c5611985848061373a565b8080601f016020809104026020016040519081016040528093929190818152602001838380828437600092019190915250859250505060c086013561167f565b6119cf8284612057565b600060a0840135608085013560608601356119f260408801356020890135613780565b6119fc9190613780565b611a069190613780565b611a109190613780565b600e54600d54919250611a32916001600160a01b0390811691859116846121f5565b604080516001600160a01b0380861682528416602082015260c08601359183917fe35677743c6b7abf01cca38cf0f4b986386e50105ec5fd3f42daeea57acf57a9910160405180910390a350505050565b60006001600160e01b03198216632483248360e11b1480610508575061050882610fd6565b8080611abc57506001600160a01b03821615155b15611b7e576000611acc8461104b565b90506001600160a01b03831615801590611af85750826001600160a01b0316816001600160a01b031614155b8015611b0b5750611b098184610e23565b155b15611b345760405163a9fbf51f60e01b81526001600160a01b038416600482015260240161066a565b8115611b7c5783856001600160a01b0316826001600160a01b03167f8c5be1e5ebec7d5bd14f71427d1e84f3dd0314c0f7b2291e5b200ac8c7c3b92560405160405180910390a45b505b5050600090815260046020526040902080546001600160a01b0319166001600160a01b0392909216919091179055565b611bb882826109de565b6105d45760405163e2517d3f60e01b81526001600160a01b03821660048201526024810183905260440161066a565b6105d482826040518060200160405280600081525061224f565b6016600f611c0e84611e36565b604051602001611c20939291906136af565b60408051601f19818403018152919052601090611c3d9082613398565b506040518290601590611c52906010906136de565b908152604051908190036020019020556000611c6d84610ad1565b600b54600d549192506001600160a01b039081169163ea4f342d9116858789868c8e30611c9987610931565b8c6040518b63ffffffff1660e01b8152600401611cbf9a99989796959493929190613793565b600060405180830381600087803b158015611cd957600080fd5b505af1158015611ced573d6000803e3d6000fd5b50506040518792508691507fa4201b68d3be402adaf88848bf7dd2594b96b1125f2c213df6687a3ed926d40790600090a350505050505050565b611d32838383612266565b610738576001600160a01b038316611d6057604051637e27328960e01b81526004810182905260240161066a565b60405163177e802f60e01b81526001600160a01b03831660048201526024810182905260440161066a565b606060ff8314611da557611d9e836122c9565b9050610508565b818054611db19061331c565b80601f0160208091040260200160405190810160405280929190818152602001828054611ddd9061331c565b8015611e2a5780601f10611dff57610100808354040283529160200191611e2a565b820191906000526020600020905b815481529060010190602001808311611e0d57829003601f168201915b50505050509050610508565b60606000611e4383612308565b60010190506000816001600160401b03811115611e6257611e62612a8e565b6040519080825280601f01601f191660200182016040528015611e8c576020820181803683370190505b5090508181016020015b600019016f181899199a1a9b1b9c1cb0b131b232b360811b600a86061a8153600a8504945084611e9657509392505050565b6000611fd07f8bf84dc105af4bac4efcd64fed007f8aea01ff8ec835c48b99caea01bccdbe40611ef8848061373a565b604051611f0692919061384d565b604051809103902084602001358560400135866060013587608001358860a001358960c001358a60e001358b610100016020810190611f459190612e4f565b611f576101408e016101208f0161385d565b60408051602081019c909c528b019990995260608a0197909752608089019590955260a088019390935260c087019190915260e08601526101008501526101208401526001600160a01b0316610140830152151561016082015261018001604051602081830303815290604052805190602001206123e0565b9050600061202082611fe661014086018661373a565b8080601f01602080910402602001604051908101604052809392919081815260200183838082843760009201919091525061240d92505050565b905061203a6000805160206138c0833981519152826109de565b61073857604051638baa579f60e01b815260040160405180910390fd5b600e546001600160a01b0316631dc3f91b61207a61012084016101008501612e4f565b848033600d546040805160e088901b6001600160e01b03191681526001600160a01b03968716600482015294861660248601529285166044850152908416606484015292909216608482015260c085013560a4820152602085013560c48201529084013560e482015260608401356101048201526080840135610124820152600161014482015261016401600060405180830381600087803b15801561211f57600080fd5b505af1158015612133573d6000803e3d6000fd5b5050600e546001600160a01b03169150637ff64b15905061215c61012084016101008501612e4f565b60c084013560a0850135600161217a6101408801610120890161385d565b6040516001600160e01b031960e088901b1681526001600160a01b03909516600486015260248501939093526044840191909152151560648301521515608482015260a401600060405180830381600087803b1580156121d957600080fd5b505af11580156121ed573d6000803e3d6000fd5b505050505050565b604080516001600160a01b0385811660248301528416604482015260648082018490528251808303909101815260849091019091526020810180516001600160e01b03166323b872dd60e01b17905261060d908590612437565b612259838361249a565b61073860008484846117d8565b60006001600160a01b03831615801590610d0a5750826001600160a01b0316846001600160a01b031614806122a057506122a08484610e23565b80610d0a5750506000908152600460205260409020546001600160a01b03908116911614919050565b606060006122d6836124ff565b604080516020808252818301909252919250600091906020820181803683375050509182525060208101929092525090565b60008072184f03e93ff9f4daa797ed6e38ed64bf6a1f0160401b83106123475772184f03e93ff9f4daa797ed6e38ed64bf6a1f0160401b830492506040015b6d04ee2d6d415b85acef81000000008310612373576d04ee2d6d415b85acef8100000000830492506020015b662386f26fc10000831061239157662386f26fc10000830492506010015b6305f5e10083106123a9576305f5e100830492506008015b61271083106123bd57612710830492506004015b606483106123cf576064830492506002015b600a83106105085760010192915050565b60006105086123ed612527565b8360405161190160f01b8152600281019290925260228201526042902090565b60008060008061241d8686612652565b92509250925061242d828261269f565b5090949350505050565b600061244c6001600160a01b03841683612758565b9050805160001415801561247157508080602001905181019061246f919061387a565b155b1561073857604051635274afe760e01b81526001600160a01b038416600482015260240161066a565b6001600160a01b0382166124c457604051633250574960e11b81526000600482015260240161066a565b60006124d28383600061131a565b90506001600160a01b03811615610738576040516339e3563760e11b81526000600482015260240161066a565b600060ff8216601f81111561050857604051632cd44ac360e21b815260040160405180910390fd5b6000306001600160a01b037f00000000000000000000000000000000000000000000000000000000000000001614801561258057507f000000000000000000000000000000000000000000000000000000000000000046145b156125aa57507f000000000000000000000000000000000000000000000000000000000000000090565b61164d604080517f8b73c3c69bb8fe3d512ecc4cf759cc79239f7b179b0ffacaa9a75d522b39400f60208201527f0000000000000000000000000000000000000000000000000000000000000000918101919091527f000000000000000000000000000000000000000000000000000000000000000060608201524660808201523060a082015260009060c00160405160208183030381529060405280519060200120905090565b6000806000835160410361268c5760208401516040850151606086015160001a61267e88828585612766565b955095509550505050612698565b50508151600091506002905b9250925092565b60008260038111156126b3576126b3613897565b036126bc575050565b60018260038111156126d0576126d0613897565b036126ee5760405163f645eedf60e01b815260040160405180910390fd5b600282600381111561270257612702613897565b036127235760405163fce698f760e01b81526004810182905260240161066a565b600382600381111561273757612737613897565b036105d4576040516335e2f38360e21b81526004810182905260240161066a565b606061140e83836000612835565b600080807f7fffffffffffffffffffffffffffffff5d576e7357a4501ddfe92f46681b20a08411156127a1575060009150600390508261282b565b604080516000808252602082018084528a905260ff891692820192909252606081018790526080810186905260019060a0016020604051602081039080840390855afa1580156127f5573d6000803e3d6000fd5b5050604051601f1901519150506001600160a01b0381166128215750600092506001915082905061282b565b9250600091508190505b9450945094915050565b60608147101561285a5760405163cd78605960e01b815230600482015260240161066a565b600080856001600160a01b0316848660405161287691906138ad565b60006040518083038185875af1925050503d80600081146128b3576040519150601f19603f3d011682016040523d82523d6000602084013e6128b8565b606091505b50915091506128c88683836128d2565b9695505050505050565b6060826128e7576128e28261292e565b61140e565b81511580156128fe57506001600160a01b0384163b155b1561292757604051639996b31560e01b81526001600160a01b038516600482015260240161066a565b508061140e565b80511561293e5780518082602001fd5b604051630a12f52160e11b815260040160405180910390fd5b508054600082556003029060005260206000209081019061077791905b80821115612995576000808255600182018190556002820155600301612974565b5090565b6001600160e01b03198116811461077757600080fd5b6000602082840312156129c157600080fd5b813561140e81612999565b60005b838110156129e75781810151838201526020016129cf565b50506000910152565b60008151808452612a088160208601602086016129cc565b601f01601f19169290920160200192915050565b60208152600061140e60208301846129f0565b600060208284031215612a4157600080fd5b5035919050565b80356001600160a01b0381168114612a5f57600080fd5b919050565b60008060408385031215612a7757600080fd5b612a8083612a48565b946020939093013593505050565b634e487b7160e01b600052604160045260246000fd5b604051601f8201601f191681016001600160401b0381118282101715612acc57612acc612a8e565b604052919050565b60006001600160401b03821115612aed57612aed612a8e565b5060051b60200190565b600082601f830112612b0857600080fd5b81356020612b1d612b1883612ad4565b612aa4565b8083825260208201915060208460051b870101935086841115612b3f57600080fd5b602086015b84811015612b5b5780358352918301918301612b44565b509695505050505050565b600080600060608486031215612b7b57600080fd5b83356001600160401b0380821115612b9257600080fd5b612b9e87838801612af7565b94506020860135915080821115612bb457600080fd5b612bc087838801612af7565b93506040860135915080821115612bd657600080fd5b50612be386828701612af7565b9150509250925092565b60006001600160401b03831115612c0657612c06612a8e565b612c19601f8401601f1916602001612aa4565b9050828152838383011115612c2d57600080fd5b828260208301376000602084830101529392505050565b600082601f830112612c5557600080fd5b61140e83833560208501612bed565b600082601f830112612c7557600080fd5b81356020612c85612b1883612ad4565b8083825260208201915060208460051b870101935086841115612ca757600080fd5b602086015b84811015612b5b57612cbd81612a48565b8352918301918301612cac565b801515811461077757600080fd5b600080600080600080600060e0888a031215612cf357600080fd5b87356001600160401b0380821115612d0a57600080fd5b612d168b838c01612c44565b985060208a0135915080821115612d2c57600080fd5b612d388b838c01612c64565b975060408a0135915080821115612d4e57600080fd5b50612d5b8a828b01612af7565b955050606088013593506080880135925060a0880135915060c0880135612d8181612cca565b8091505092959891949750929550565b600080600060608486031215612da657600080fd5b612daf84612a48565b9250612dbd60208501612a48565b9150604084013590509250925092565b60008060408385031215612de057600080fd5b82359150612df060208401612a48565b90509250929050565b600080600060608486031215612e0e57600080fd5b8335925060208401356001600160401b03811115612e2b57600080fd5b612e3786828701612c44565b925050612e4660408501612a48565b90509250925092565b600060208284031215612e6157600080fd5b61140e82612a48565b60008151808452602080850194506020840160005b83811015612e9b57815187529582019590820190600101612e7f565b509495945050505050565b60ff60f81b8816815260e060208201526000612ec560e08301896129f0565b8281036040840152612ed781896129f0565b606084018890526001600160a01b038716608085015260a0840186905283810360c08501529050612f088185612e6a565b9a9950505050505050505050565b600080600060608486031215612f2b57600080fd5b83356001600160401b03811115612f4157600080fd5b612f4d86828701612c44565b935050612dbd60208501612a48565b600082601f830112612f6d57600080fd5b81356020612f7d612b1883612ad4565b82815260059290921b84018101918181019086841115612f9c57600080fd5b8286015b84811015612b5b5780356001600160401b03811115612fbf5760008081fd5b612fcd8986838b0101612c44565b845250918301918301612fa0565b60008060408385031215612fee57600080fd5b82356001600160401b038082111561300557600080fd5b61301186838701612af7565b9350602085013591508082111561302757600080fd5b5061303485828601612f5c565b9150509250929050565b6000806040838503121561305157600080fd5b61305a83612a48565b9150602083013561306a81612cca565b809150509250929050565b6000806000806080858703121561308b57600080fd5b61309485612a48565b93506130a260208601612a48565b92506040850135915060608501356001600160401b038111156130c457600080fd5b8501601f810187136130d557600080fd5b6130e487823560208401612bed565b91505092959194509250565b60008083601f84011261310257600080fd5b5081356001600160401b0381111561311957600080fd5b6020830191508360208260051b850101111561313457600080fd5b9250929050565b6000806000806040858703121561315157600080fd5b84356001600160401b038082111561316857600080fd5b613174888389016130f0565b9096509450602087013591508082111561318d57600080fd5b5061319a878288016130f0565b95989497509550505050565b600080604083850312156131b957600080fd5b6131c283612a48565b9150612df060208401612a48565b600082601f8301126131e157600080fd5b813560206131f1612b1883612ad4565b8083825260208201915060208460051b87010193508684111561321357600080fd5b602086015b84811015612b5b57803561322b81612cca565b8352918301918301613218565b600080600080600080600060e0888a03121561325357600080fd5b87356001600160401b038082111561326a57600080fd5b6132768b838c01612c64565b985060208a013591508082111561328c57600080fd5b6132988b838c01612f5c565b975060408a01359150808211156132ae57600080fd5b6132ba8b838c01612af7565b965060608a01359150808211156132d057600080fd5b6132dc8b838c01612af7565b955060808a0135945060a08a0135935060c08a013591508082111561330057600080fd5b5061330d8a828b016131d0565b91505092959891949750929550565b600181811c9082168061333057607f821691505b602082108103610bfb57634e487b7160e01b600052602260045260246000fd5b601f821115610738576000816000526020600020601f850160051c810160208610156133795750805b601f850160051c820191505b818110156121ed57828155600101613385565b81516001600160401b038111156133b1576133b1612a8e565b6133c5816133bf845461331c565b84613350565b602080601f8311600181146133fa57600084156133e25750858301515b600019600386901b1c1916600185901b1785556121ed565b600085815260208120601f198616915b828110156134295788860151825594840194600190910190840161340a565b50858210156134475787850151600019600388901b60f8161c191681555b5050505050600190811b01905550565b634e487b7160e01b600052601160045260246000fd5b60006001820161347f5761347f613457565b5060010190565b60608152600061349960608301866129f0565b82810360208401526134ab81866129f0565b91505060018060a01b0383166040830152949350505050565b634e487b7160e01b600052603260045260246000fd5b8181038181111561050857610508613457565b600083516134ff8184602088016129cc565b8351908301906135138183602088016129cc565b01949350505050565b6000823561015e1983360301811261353357600080fd5b9190910192915050565b815160009082906020808601845b838110156135675781518552938201939082019060010161354b565b50929695505050505050565b6060815260006135866060830186612e6a565b82810360208401526135988186612e6a565b905082810360408401526128c88185612e6a565b60006020808352600084546135c08161331c565b80602087015260406001808416600081146135e257600181146135fe5761362e565b60ff19851660408a0152604084151560051b8a0101955061362e565b89600052602060002060005b858110156136255781548b820186015290830190880161360a565b8a016040019650505b509398975050505050505050565b600081546136498161331c565b600182811680156136615760018114613676576136a5565b60ff19841687528215158302870194506136a5565b8560005260208060002060005b8581101561369c5781548a820152908401908201613683565b50505082870194505b5050505092915050565b60006136c46136be838761363c565b8561363c565b83516136d48183602088016129cc565b0195945050505050565b600061140e828461363c565b6001600160a01b03858116825284166020820152604081018390526080606082018190526000906128c8908301846129f0565b60006020828403121561372f57600080fd5b815161140e81612999565b6000808335601e1984360301811261375157600080fd5b8301803591506001600160401b0382111561376b57600080fd5b60200191503681900382131561313457600080fd5b8082018082111561050857610508613457565b600061014060018060a01b03808e16845260208d60208601528c60408601528b60608601528a60808601528260a08601526137d08386018b612e6a565b85810360c087015289518082526020808c0195509091019060005b818110156138095785518516835294830194918301916001016137eb565b50506001600160a01b03891660e0870152935061382592505050565b6001600160a01b0384166101008301528215156101208301529b9a5050505050505050505050565b8183823760009101908152919050565b60006020828403121561386f57600080fd5b813561140e81612cca565b60006020828403121561388c57600080fd5b815161140e81612cca565b634e487b7160e01b600052602160045260246000fd5b600082516135338184602087016129cc56fed2e4c2619ea6e0faebc405d89445161c041e30fe03373ea0473da142d57d4514a26469706673582212202ed3854842b3fec5e0c444382ff5b9bb77072ca0b94fb9ee04ffb3a8e57c6c5764736f6c63430008160033",
  "linkReferences": {},
  "deployedLinkReferences": {}
}